:100000000C944C000C946D000C9479000C94A2009C
:100010000C94B5000C94D8000C94E7000C946B0081
:100020000C946B000C946B000C946B000C946B00A4
:100030000C946B000C946B000C946B000C946B0094
:100040000C946B000C946B000C946B000C946B0084
:100050000C946B000C946B000C946B000C946B0074
:100060000C946B000C946B000C946B000C946B0064
:100070000C946B000C94A9040C946B000C946B0012
:100080000C946B000C946B000C946B000C946B0044
:100090000C946B000C946B0011241FBECFEFD0E2C8
:1000A000DEBFCDBF11E0A0E0B1E0EEE5FCE000E096
:1000B0000BBF02C007900D92A832B107D9F711E02B
:1000C000A8E2B1E001C01D92A334B107E1F70E949C
:1000D000A3030C942D060C94CD021F920F920FB621
:1000E0000F921124109200010F900FBE0F901F90DD
:1000F00018951F920F920FB60F9211248F939F9312
:1001000080911001813049F490912C0180912B0154
:10011000981315B8109210010EC081E08093100161
:1001200010922D01809130019091310101969093B0
:100130003101809330019F918F910F900FBE0F90EE
:100140001F9018951F920F920FB60F9211248F9344
:1001500081E080932A0110922B01109200018F916F
:100160000F900FBE0F901F9018951F920F920FB611
:100170000F9211248F939F9380910901813071F424
:10018000109209018FEF93E090930F0180930E017D
:1001900080917A00806480937A0003C081E080932C
:1001A00009019F918F910F900FBE0F901F9018958E
:1001B0001F920F920FB60F9211248F9381E08093BC
:1001C00000018F910F900FBE0F901F9018951F92F6
:1001D0000F920FB60F9211248F9382E0809300014B
:1001E0008F910F900FBE0F901F9018959C018091DA
:1001F000810088608093810088EE93E0909389006D
:10020000809388001092850010928400B19A80E05B
:1002100090E004C0B19BFECFB19A0196821793077C
:10022000CCF30895EF92FF920F931F93CF93DF9338
:100230007C01C0912801D0912901672B09F04BC0A6
:1002400001E111E02196C430D10514F0C0E0D0E006
:10025000FE01EB5FFE4F808182B9F80181918F0131
:1002600090E00E94F600F1E001321F0759F700E02C
:1002700010E080EE9FEFE80EF91E11C02196C43009
:10028000D10511F4C0E0D0E0FE01EB5FFE4F8081AC
:1002900082B986E090E00E94F6000F5F1F4F0E15B6
:1002A0001F0564F300E211E02196C430D10511F47A
:1002B000C0E0D0E0FE01EB5FFE4F808182B9F80123
:1002C000808190E00E94F60001501040F1E0003182
:1002D0001F0751F74BC001E111E02197D7FF02C082
:1002E000C3E0D0E0FE01EB5FFE4F808182B9F801F0
:1002F00081918F0190E00E94F600F1E001321F072A
:1003000061F700E010E080EE9FEFE80EF91E12C0EA
:1003100021979FEFCF3FD90711F4C3E0D0E0FE0152
:10032000EB5FFE4F808182B986E090E00E94F6008C
:100330000F5F1F4F0E151F055CF300E211E02197C0
:10034000EFEFCF3FDE0711F4C3E0D0E0FE01EB5F3B
:10035000FE4F808182B9F801808190E00E94F60012
:1003600001501040F1E000311F0749F7D0932901F7
:10037000C0932801DF91CF911F910F91FF90EF90D3
:10038000089584E690E061E070E00E94120185E04B
:1003900090E00E94F600089582E390E060E070E053
:1003A0000E94120185E090E00E94F600089582E329
:1003B00090E061E070E00E94120185E090E00E9410
:1003C000F6000895209130013091310180912E0185
:1003D00090912F018217930774F480912E019091D0
:1003E0002F01909331018093300110922D01809163
:1003F0002B0180932C0190912C0180912B01981757
:1004000009F06DC080912D01882309F068C020910A
:100410002E0130912F0180913001909131012817E8
:10042000390709F05CC0E0913B01F0913C01F09389
:100430003601E0933501309761F083819481909388
:100440003C0180933B01892B21F4109238011092DA
:1004500037012081318143E02B3C34071CF010929E
:100460002C012BC0C901835593408837910510F4A6
:1004700082E021C0C9018D52914086529240A8F479
:1004800021E020932C0180912E0190912F01019663
:1004900090932F0180932E0190912C0180912B013C
:1004A0009817E9F420932D011AC02B5030402252A6
:1004B0003140A8F483E080932C0180912E0190912B
:1004C0002F01019690932F0180932E0190912C0182
:1004D00080912B01981719F481E080932D01809170
:1004E0002E0190912F012091300130913101821B1A
:1004F000930B019709F050C080912C0120912B01A2
:1005000040912C0130912B0190E0821B91090197C1
:1005100039F0842F90E0831B91098D5F9F4F19F470
:100520000E94D70116C080912C0120912B0140918F
:100530002C0130912B0190E0821B9109029739F038
:10054000842F90E0831B91098E5F9F4F49F40E9496
:10055000C10180912C0180932B0184E085B908951D
:1005600080912C0120912B0140912C0130912B0185
:1005700090E0821B9109039739F0842F90E0831B50
:1005800091098F5F9F4F41F40E94CC0180912C0113
:1005900080932B0184E085B908951F920F920FB6C6
:1005A0000F920BB60F9211242F933F934F935F93AB
:1005B0006F937F938F939F93AF93BF93EF93FF932B
:1005C0008FEF88B980EF8BB980E593EC0E94F6003D
:1005D000FF91EF91BF91AF919F918F917F916F911B
:1005E0005F914F913F912F910F900BBE0F900FBED7
:1005F0000F901F9018950F931F93CF93DF93C0E038
:10060000D0E000E110E017C02196C430D10514F00D
:10061000C0E0D0E0FE01EB5FFE4F808182B9C801EF
:100620000E94F6000830110514F001501040D093DC
:100630002901C093280180912A01882329F3DF91A1
:10064000CF911F910F910895CF92DF92EF92FF9279
:100650000F931F93CF93DF936C017A01C091280110
:10066000D0912901672B19F000E010E026C000E0CE
:1006700010E010C02196C430D10514F0C0E0D0E0E5
:10068000FE01EB5FFE4F808182B9C7010E94F60038
:100690000F5F1F4F0C151D056CF312C02197D7FF7C
:1006A00002C0C3E0D0E0FE01EB5FFE4F808182B963
:1006B000C7010E94F6000F5F1F4F0C151D0574F354
:1006C000D0932901C0932801DF91CF911F910F9101
:1006D000FF90EF90DF90CF90089584E690E00E9425
:1006E000F60080EC8BB980913301882321F481E0FE
:1006F0008093330102C0109233018091330188B995
:1007000084E690E00E94F60010920001089584E6CD
:1007100090E00E94F60080E38BB980913401882339
:1007200021F481E08093340102C010923401809161
:1007300034018295807F88B984E690E00E94F600BB
:100740001092000108959FEF91B98FEA84B997B98B
:1007500080EF8AB91DB810BA8091810081608093C2
:10076000810085B5826085BD84B5836084BD1092AB
:100770003C0110923B01109238011092370184B570
:10078000806884BD2A9A8CE387BD80917A00806856
:1007900080937A0080917A00886080937A008091BB
:1007A0007C00816480937C00F89480916900866667
:1007B00080936900E99AEA9AEB9A78948091000113
:1007C0008130F1F1813028F08230E9F18430B1F7E5
:1007D0003DC084E190E00E94F60082E390E060E09A
:1007E00070E00E94120188EC90E00E94F60082E323
:1007F00090E061E070E00E94120188EC90E00E94BD
:10080000F60082E390E060E070E00E94120188EC64
:1008100090E00E94F60082E390E061E070E00E94C8
:10082000120188EC90E00E94F60082E390E060E024
:1008300070E00E94120188EC90E00E94F600BECFAA
:100840000E946D03BBCF0E948703B8CF0E94FB02BA
:10085000B5CFFC01DB01118210821D921C9208951C
:10086000CF93DF939C01DB01FA01CD91DC911197CD
:1008700080819181209719F09C838B8303C0E901CB
:1008800099838883808191818D939C93DF91CF910F
:100890000895CF93DF93DC01EB01FA018D919C91D8
:1008A000119791838083ED91FC911197309741F0DE
:1008B000838194818D939C93892B11F419821882E2
:1008C000DF91CF910895DF93CF9300D00F92CDB7F2
:1008D000DEB7FC01DE01119620813181C901FC01E6
:1008E00083E001900D928150E1F769817A818B81DB
:1008F00090E00F900F900F90CF91DF9108950F939C
:100900001F93CF93DF93EC018B0107C08381948108
:1009100099838883CF010E94D505E881F9813097BA
:10092000A9F7F80111821082DF91CF911F910F91E9
:1009300008950F931F938C0185E090E00E94280595
:10094000FC01D8018D939C93148213821F910F9107
:1009500008951F920F920FB60F920BB60F921124AB
:100960002F933F934F935F936F937F938F939F93B7
:10097000AF93BF93EF93FF9320917800309179006C
:1009800080910E0190910F0128173907B0F48091E2
:1009900078009091790090930F0180930E018091DF
:1009A000780090E090930B0180930A018091790088
:1009B00090E090930D0180930C01809109018823B0
:1009C00031F480917A00806480937A002EC0809107
:1009D0000A0190910B0188B980910C0190910D0151
:1009E0008295880F807E8BB98DE391E00E949904F7
:1009F000E0913D01F0913E0180910E0190910F0137
:100A000091838083A0913701B0913801109729F02C
:100A10001496FC93EE93139704C0F0933C01E0937B
:100A20003B01F0933801E0933701FF91EF91BF91C3
:100A3000AF919F918F917F916F915F914F913F9176
:100A40002F910F900BBE0F900FBE0F901F90189517
:100A5000CF93DF93BC018230910510F462E070E027
:100A6000A0914101B0914201ED01E0E0F0E040E0F1
:100A700050E021C0888199818617970769F48A819F
:100A80009B81309719F09383828304C09093420135
:100A900080934101FE0134C06817790738F441158D
:100AA000510519F08417950708F4AC01FE018A81FD
:100AB0009B819C01E9012097E9F641155105A9F1B7
:100AC000CA01861B970B049708F4BA01E0E0F0E036
:100AD0002AC08D919C91119784179507F9F464179A
:100AE000750781F412968D919C911397309719F0A8
:100AF0009383828304C09093420180934101FD015E
:100B000032964FC0CA01861B970BFD01E80FF91FF3
:100B10006193719302978D939C9343C0FD018281F1
:100B200093819C01D9011097A1F680913F0190918A
:100B30004001892B41F480912301909124019093ED
:100B4000400180933F0140912501509126014115BC
:100B5000510541F44DB75EB780912101909122017A
:100B6000481B590B20913F01309140012417350754
:100B7000B0F4CA01821B930B8617970780F0AB0174
:100B80004E5F5F4F8417950750F0420F531F5093ED
:100B9000400140933F01F9016193719302C0E0E08D
:100BA000F0E0CF01DF91CF910895CF93DF930097CD
:100BB00009F450C0EC0122971B821A82A0914101D6
:100BC000B0914201109709F140E050E0AC17BD0729
:100BD00008F1BB83AA83FE0121913191E20FF31F3B
:100BE000AE17BF0779F48D919C911197280F391F8B
:100BF0002E5F3F4F3983288312968D919C911397D6
:100C00009B838A834115510571F4D0934201C093AF
:100C1000410120C012968D919C911397AD010097D0
:100C200011F0DC01D3CFFA01D383C283219131913A
:100C3000E20FF31FCE17DF0769F488819981280F2F
:100C4000391F2E5F3F4FFA01318320838A819B81B8
:0E0C500093838283DF91CF910895F894FFCFB4
:100C5E00040004080FD8B8B4D401FF00FF00FF034E
:100C6E0001111110100F0E0D0C0B0A0908080707C1
:080C7E00062000430100000004
:00000001FF
