:100000000C944C000C946B000C946B000C946B00E3
:100010000C946B000C946D000C947C000C946B00A1
:100020000C946B000C946B000C946B000C946B00A4
:100030000C946B000C946B000C946B000C946B0094
:100040000C946B000C946B000C946B000C946B0084
:100050000C946B000C946B000C946B000C946B0074
:100060000C946B000C946B000C946B000C946B0064
:100070000C946B000C946B000C946B000C946B0054
:100080000C946B000C946B000C946B000C946B0044
:100090000C946B000C946B0011241FBECFEFD0E2C8
:1000A000DEBFCDBF11E0A0E0B1E0E8E7F2E000E0A4
:1000B0000BBF02C007900D92A030B107D9F711E035
:1000C000A0E0B1E001C01D92A330B107E1F70E94AA
:1000D000DD000C943A010C940C011F920F920FB6A4
:1000E0000F9211248F9381E0809300018F910F90E4
:1000F0000FBE0F901F9018951F920F920FB60F9280
:1001000011248F9382E0809300018F910F900FBE96
:100110000F901F9018959C018091810088608093BA
:10012000810088EE93E0909389008093880010927C
:10013000850010928400B19A80E090E004C0B19BE9
:10014000FECFB19A019682179307CCF3089584E607
:1001500090E00E948B0080E38BB98091020188239C
:1001600021F481E08093020102C01092020180918B
:1001700002018295807F88B984E690E00E948B001E
:1001800010920001089584E690E00E948B0080ECBC
:100190008BB980910101882321F481E080930101D2
:1001A00002C0109201018091010188B984E690E0BB
:1001B0000E948B001092000108959FEF91B98FEA81
:1001C00084B997B980EF8AB91DB810BA80918100BF
:1001D00081608093810085B5826085BD84B5836030
:1001E00084BDF894EC9AED9A8091690082608093C6
:1001F000690080916900886080936900789480919B
:100200000001813019F08230D1F703C00E94C30091
:10021000F6CF0E94A700F3CF1F920F920FB60F9256
:100220000BB60F9211242F933F934F935F936F93CD
:100230007F938F939F93AF93BF93EF93FF938FEF32
:1002400088B980EF8BB980E593EC0E948B00FF9119
:10025000EF91BF91AF919F918F917F916F915F913E
:100260004F913F912F910F900BBE0F900FBE0F90AB
:080270001F901895F894FFCFD0
:00000001FF
