:100000000C944C000C946B000C946B000C946B00E3
:100010000C946B000C946B000C946B000C946B00B4
:100020000C946B000C946B000C946B000C946B00A4
:100030000C946B000C946B000C946B000C946B0094
:100040000C946B000C946B000C946B000C946B0084
:100050000C946B000C946B000C946B000C946B0074
:100060000C946B000C946B000C946B000C946B0064
:100070000C946B000C94BD000C946B000C946B0002
:100080000C946B000C946B000C946B000C946B0044
:100090000C946B000C946B0011241FBECFEFD0E2C8
:1000A000DEBFCDBF11E0A0E0B1E0EEEEF1E000E098
:1000B0000BBF02C007900D92A030B107D9F711E035
:1000C000A0E0B1E001C01D92A430B107E1F70E94A9
:1000D0006D000C94F5000C9400009FEF91B98FEA2D
:1000E00084B997B980EF8AB91DB810BA80918100A0
:1000F00081608093810085B5826085BD84B5836011
:1001000084BD80917A00806880937A0080917A0023
:10011000886080937A0080917C00806480937C006A
:10012000F894809169008A6E80936900E89AE99A50
:10013000EA9AEB9A789480917A00806480937A00AE
:100140008091010190910201892BD1F3109202015B
:10015000109201018091030188B91BB880910001C0
:1001600080FF03C08BB1806C8BB98091000180FF50
:10017000E2CF8BB180638BB9DECF1F920F920FB6A7
:100180000F9211248F939F938091780080930301A5
:10019000809179008093000181E090E090930201CA
:1001A000809301019F918F910F900FBE0F901F9030
:1001B00018959C018091810088608093810088EE71
:1001C00093E09093890080938800109285001092AC
:1001D0008400B19A80E090E004C0B19BFECFB19A58
:0E01E000019682179307CCF30895F894FFCF91
:00000001FF
